:020000001329C2
:0E0006008312031331088A00300882000800BC
:1000140083120313FB01FA01F9018030F800F10C9B
:10002400F00C031C1E287408F90775080318750FD3
:10003400FA070318FB0A0310F01F26287408FA07AE
:1000440075080318750FFB07FB0CFA0CF90CF80C78
:10005400031C11287B08F3007A08F2007908F100E8
:060064007808F00008001E
:10006A008316031398183B28000035288312360894
:04007A0099000800E1
:10007E0083160313981690308312980083168717F1
:10008E00071383128C1E4E281A08F0004828080009
:0C009E008312031395011712971208003B
:1000AA0083120313B401320884000008B300330832
:1000BA00003A03196A283308B6003520B40A34080E
:0C00CA00320784000008B3005C28080026
:1000D600831603130711831212150C3097040800B8
:0C00E600831203139B011D129D120800E1
:1000F20003208A110A128000840AB00A0319B10A85
:08010200F003031D7928080039
:10010A00831603131208013EF000F1010318F10AE5
:10011A0083123208F400F5010A200630F200700852
:10012A00F4007108F50072080319A028F50CF40C04
:10013A00F513FF3E99280430F1007408F0007108A5
:10014A000319AB28F00D7010FF3EA528303070055A
:10015A00F3007408F0007508F100F10CF00CF113CB
:10016A00F10CF00CF11370089B000F309D05730819
:04017A009D040800D8
:10017E00831603138710831212150C309D0408008A
:10018E00831203131A08F100981CCF2818121816A0
:06019E007108F0000800EA
:1001A400831603131208013EF000F1010318F10A4B
:1001B40083123208F400F5010A200630F2007008B8
:1001C400F4007108F50072080319ED28F50CF40C1D
:1001D400F513FF3EE6280430F1007408F0007108BE
:1001E4000319F828F00D7010FF3EF2283030700526
:1001F400F3007408F0007508F100F10CF00CF11331
:10020400F10CF00CF113700895000F30970573088A
:040214009704080043
:0E0218000030831203138C1A0130F00008002E
:10022600503083120313A0005230A1004530A200C3
:100236005330A3005330A4002030A5004130A6005F
:100246002030A7004B30A8004530A9005930AA003D
:100256002030AB003A30AC002030AD00AE01831642
:10026600031789018801FF30031385008801860181
:1002760083128601831687100711071705150915BE
:1002860085148312061086100611861186128316AF
:1002960089100C3083129700073092003330831692
:1002A600990018153F20121492106330831692009D
:1002B6004F201214921063308316920073206B2025
:1002C600BF20FF30B200D220FF30B2008520831657
:1002D6000F140F160F1A71298F1272298F168F1A83
:1002E60076290F1377290F1720308312B200552075
:1002F6000C21700803198529C7207008AF00700803
:10030600B6003520F9298612891086130614861040
:1003160006158611FF30B200D220FF30B2008520CC
:10032600122A86128910861306108614061186155F
:10033600FF30B200D220FF30B2008520122A86128A
:10034600891086130610861406158611FF30B20032
:10035600D220FF30B2008520122A86128910861319
:100366000614861006118615FF30B200D220FF3023
:10037600B2008520122A861289108613061086106E
:1003860006118611FF30B200D220FF30B200852060
:10039600122A0919D3298518D3290519D329E12940
:1003A6008910861686170610861006118611FF30EC
:1003B600B200D220FF30B2008520EA2989108612C9
:1003C6008613FF30B200D220FF30B2008520122AF9
:1003D6008914861306108610061186118612FF30C0
:1003E600B200D220FF30B2008520122A2F08463AEA
:1003F600031986292F08423A031994292F084C3AE3
:100406000319A2292F08523A0319B0292F08533A83
:100416000319BE292F08573A0319CC29EB297B2942
:02042600132A97
:04400E00F22F000786
:00000001FF
